S012000073746F705F77617463682E73726563D6
S11300000C942A000C9447000C9447000C9447006D
S11300100C9447000C9447000C9447000C94470040
S11300200C9447000C9447000C9447000C94470030
S11300300C9447000C9447000C9447000C94470020
S11300400C9447000C9447000C9447000C94470010
S11300500C94470011241FBECFE5D8E0DEBFCDBF0E
S113006010E0A0E6B0E0EEEEF0E002C005900D92E4
S1130070A036B107D9F710E0A0E6B0E001C01D92A8
S1130080A036B107E1F70E944E000C9475000C9461
S113009000008F708A3008F08A5F0895CF93D59856
S11300A08FEF87BB84B3836084BB85B3836085BBD8
S11300B0C99BFECFCCE380E00E94490088BB95B386
S11300C09C7F95BB95B3936095BB2FEF34E34CE0D5
S11300D0215030404040E1F700C000008F5FC15024
S11100E059F780E090E0CF910895F894FFCF97
S9030000FC
