:100000000C942A000C9447000C9447000C94470071
:100010000C9447000C9447000C9447000C94470044
:100020000C9447000C9447000C9447000C94470034
:100030000C9447000C9447000C9447000C94470024
:100040000C9447000C9447000C9447000C94470014
:100050000C94470011241FBECFE5D8E0DEBFCDBF12
:1000600010E0A0E6B0E0ECE3F1E002C005900D92F4
:10007000A036B107D9F710E0A0E6B0E001C01D92AC
:10008000A036B107E1F70E9449000C949C000C9443
:10009000000030E040E08AB38C608ABB81B3806F9F
:1000A00081BBD998C899FECF20E05AE030C0392FE3
:1000B000482F72B37F7072BB72B3E42FE295E07F7A
:1000C0007E2B72BB939AEFE1FEE43197F1F700C00B
:1000D0000000DB986150C1F02A3010F0392F482F12
:1000E00072B37F7072BB72B3E32FE295E07F7E2B19
:1000F00072BB929AEFE1FEE43197F1F700C0000085
:10010000DA982A30A0F6D5CF2F5F2C3331F0822F2A
:10011000652F0E94900062E3DFCF80E090E00895B9
:10012000991B79E004C0991F961708F0961B881F49
:0C0130007A95C9F780950895F894FFCFE8
:00000001FF
