:100000000C942A000C9447000C9447000C94470071
:100010000C9447000C9447000C9447000C94470044
:100020000C9447000C9447000C9447000C94470034
:100030000C9447000C9447000C9447000C94470024
:100040000C9447000C9447000C9447000C94470014
:100050000C94470011241FBECFE5D8E0DEBFCDBF12
:1000600010E0A0E6B0E0E8EEF0E002C005900D92EE
:10007000A036B107D9F710E0A0E6B0E001C01D92AC
:10008000A036B107E1F70E9449000C9472000C946D
:1000900000008FEF84BB15BA2FE73AE146E021500C
:1000A00030404040E1F700C0000081E00DC08150C9
:1000B00085BB2FE73AE146E0215030404040E1F770
:1000C00000C00000882399F785BB2FE73AE146E09E
:1000D000215030404040E1F700C000008F5F8A307F
:0800E00099F7E5CFF894FFCF7A
:00000001FF
